:100000000C9432000C9444000C9444000C94440072
:100010000C9444000C9444000C9444000C94440050
:100020000C9444000C9444000C9444000C9465001F
:100030000C9444000C9444000C9444000C94440030
:100040000C9444000C9444000C9444000C94440020
:100050000C94440052005400560058005A005C00B2
:100060005E00600011241FBECFE5D8E0DEBFCDBF2B
:1000700020E0A0E6B0E001C01D92A436B207E1F78F
:100080000E94AC000C94E5000C94000068E070E065
:100090000E94CB0088309105B0F4FC01E65DFF4F73
:1000A0000C94DF0082E00DC086E00BC084E009C044
:1000B00085E007C08DE005C089E003C08BE001C08A
:1000C0008AE08BBB08951BBA08951F920F920FB65A
:1000D0000F9211242F933F934F935F936F937F93CE
:1000E0008F939F93AF93BF93EF93FF9383B384302A
:1000F000C9F0809162009091630066E871E00E940F
:10010000B700892B79F480916000909161000E9482
:10011000460080916000909161000196909361008B
:1001200080936000809162009091630001969093AB
:10013000630080936200FF91EF91BF91AF919F9117
:100140008F917F916F915F914F913F912F910F9080
:100150000FBE0F901F90189514BA8FE08ABB1BBA80
:1001600081E083BF89B7816089BF7894FFCFAA1BE4
:10017000BB1B51E107C0AA1FBB1FA617B70710F092
:10018000A61BB70B881F991F5A95A9F780959095C4
:10019000BC01CD01089597FB072E16F4009407D0FB
:1001A00077FD09D00E94B70007FC05D03EF490957A
:1001B00081959F4F0895709561957F4F0895EE0F3B
:0E01C000FF1F0590F491E02D0994F894FFCFF5
:00000001FF
