:100000000C942A000C943C000C943C000C943C0092
:100010000C943C000C943C000C943C000C943C0070
:100020000C943C000C943C000C943C000C943C0060
:100030000C943C000C943C000C943C000C943C0050
:100040000C943C000C943C000C943C000C943C0040
:100050000C943C0011241FBECFE5D8E0DEBFCDBF1D
:1000600020E0A0E6B0E001C01D92A436B207E1F79F
:100070000E948D000C94A2000C94000097B1987F10
:100080008770892B87B9369A3699FECF84B195B19E
:10009000089580916200909163008230910589F00B
:1000A00020F4019799F484E00FC08330910559F052
:1000B000049761F482E088BB1092630010926200A2
:1000C00008958DE001C08BE088BB089518BA0895AB
:1000D0000F931F93CF93DF938C01C0E0D0E0C01744
:1000E000D107B4F4809162009091630001969093DF
:1000F0006300809362000E9449002FE986E891E046
:10010000215080409040E1F700C000002196E7CFE9
:10011000DF91CF911F910F9108958FE087BB80EF02
:100120008ABB80E487B986E886B918BA80E00E9465
:100130003E009695879590936100809360000E94A1
:080140006800FFCFF894FFCF27
:00000001FF
