:100000000C9434000C943E000C943E000C943E0082
:100010000C943E000C943E000C943E000C943E0068
:100020000C943E000C943E000C943E000C943E0058
:100030000C943E000C943E000C943E000C943E0048
:100040000C943E000C943E000C943E000C943E0038
:100050000C943E0048004A004C004E0050005200F4
:100060005400560058005A0011241FBECFE5D4E0BA
:10007000DEBFCDBF0E945F000C948D000C94000089
:100080008A309105D0F4FC01E65DFF4F0C948700A7
:100090008FE311C086E00FC08BE50DC08FE40BC06D
:1000A00086E609C08DE607C08DE705C087E003C07E
:1000B0008FE701C08FEE82BB089512BA08958FEFCB
:1000C00081BB84BB15BA12BA84E08EBD85E083BFC4
:1000D00012BE8FE382BBC0E0D0E001E010E082B747
:1000E0008370980102C0220F331F8A95E2F725BB67
:1000F0008CB59DB58938934190F3C930D1057CF713
:100100001DBC1CBC2196CE010E944000E8CFEE0F22
:0E011000FF1F0590F491E02D0994F894FFCFA5
:00000001FF
