:100000000C9434000C943E000C943E000C943E0082
:100010000C943E000C943E000C943E000C943E0068
:100020000C943E000C943E000C943E000C943E0058
:100030000C943E000C943E000C943E000C943E0048
:100040000C943E000C943E000C943E000C943E0038
:100050000C943E007C007E008000820084008600BC
:1000600088008A008C008E0011241FBECFE5D4E0EA
:10007000DEBFCDBF0E9493000C94EB000C940000F7
:1000800061157105B1F06130710541F42AE030E08D
:10009000B9010E94BD00CB01B9010DC062307105EC
:1000A00019F464E670E002C068EE73E00E94BD00DF
:1000B000CB016AE070E00E94BD0008958130910597
:1000C00071F024F4892B71F487E00AC08230910525
:1000D00021F0039739F48EE003C08DE001C08BE07E
:1000E00085BB089515BA08958A309105D0F4FC01B6
:1000F000E65DFF4F0C94D1008FE311C086E00FC086
:100100008BE50DC08FE40BC086E609C08DE607C005
:100110008DE705C087E003C08FE701C08FEE82BB8B
:10012000089512BA08958FEF81BB84BB85BB12BAC4
:1001300084E08EBD85E083BF12BE8FE382BB00E00A
:1001400010E0C2B7C370D0E0BE01C8010E944000F9
:100150007C01CE010E945E00C7010E9474008CB534
:100160009DB5813D974068F3003187E218074CF751
:100170001DBC1CBC0F5F1F4FE4CF97FB072E16F46E
:10018000009407D077FD09D00E94D70007FC05D066
:100190003EF4909581959F4F0895709561957F4F9E
:1001A0000895EE0FFF1F0590F491E02D0994AA1B0E
:1001B000BB1B51E107C0AA1FBB1FA617B70710F052
:1001C000A61BB70B881F991F5A95A9F78095909584
:0A01D000BC01CD010895F894FFCFA3
:00000001FF
