:100000000C942A000C943B010C9447000C9447007C
:100010000C9447000C9447000C9447000C94470044
:100020000C9447000C9447000C9447000C948601F4
:100030000C9447000C9447000C9447000C94470024
:100040000C9447000C9447000C9447000C94470014
:100050000C94470011241FBECFE5D8E0DEBFCDBF12
:1000600010E0A0E6B0E0E2EBFDE002C005900D92EA
:10007000A239B107D9F720E0A2E9B0E001C01D9292
:10008000A13CB207E1F70E94CD010C94D7060C9475
:10009000000088BB95989698979A83EF91E0019716
:1000A000F1F700C000009798089588BB959A96983C
:1000B000979A83EF91E00197F1F700C000009798BD
:1000C000089588E30E94490089EF90E00197F1F7D5
:1000D00000C0000081E00E94490089EF90E0019794
:1000E000F1F700C0000082E00E94490089EF90E033
:1000F0000197F1F700C0000086E00E94490089EFF7
:1001000090E00197F1F700C0000080E80E944900EC
:1001100089EF90E00197F1F700C000000895CF93B8
:10012000DF93EC018991882319F00E945500FACFE2
:10013000DF91CF9108958091BD009091BE008230F3
:10014000910589F020F4019799F480E40FC0833081
:10015000910559F0049761F480E28BBB1092BE00C8
:100160001092BD00089580ED01C080EB8BBB089517
:100170001BBA0895EF92FF920F931F93CF93DF93D3
:10018000CDB7DEB7A8970FB6F894DEBF0FBECDBFD0
:100190001E8A1D8A82E1FE017796DF01982F1D924B
:1001A0009A95E9F71A8219827497DF011D928A9550
:1001B000E9F7809163008F93809162008F9384E6CA
:1001C00090E09F938F938E010B5E1F4F1F930F93B1
:1001D0000E94ED03809161008F93809160008F9366
:1001E0008DE690E09F938F93CE0101967C019F93C3
:1001F0008F930E94ED0381E00E944900C8010E9494
:100200008F0080EC0E944900C7010E948F000FB64A
:10021000F894DEBF0FBECDBFA8960FB6F894DEBF30
:100220000FBECDBFDF91CF911F910F91FF90EF9047
:10023000089597B1987F8770892B87B9369A369938
:10024000FECF84B195B10895209162003091630092
:100250008217930760F44091600050916100241B65
:10026000350B8217930728F080919200089581E062
:10027000089580E008951F920F920FB60F921124F7
:100280002F933F934F935F936F937F938F939F939E
:10029000AF93BF93EF93FF93989B06C0809162004A
:1002A00090916300019607C0999B0AC080916200FB
:1002B000909163000197909363008093620013C054
:1002C0009A9B06C08091600090916100019607C0E2
:1002D0009B9B09C080916000909161000197909371
:1002E0006100809360000E94BA00FF91EF91BF917E
:1002F000AF919F918F917F916F915F914F913F91BE
:100300002F910F900FBE0F901F9018951F920F9274
:100310000FB60F9211242F933F934F935F936F93D8
:100320007F938F939F93AF93BF93EF93FF938091AE
:10033000BB009091BC0001969093BC008093BB00E1
:1003400085E082BF8091BB009091BC0080399140D4
:1003500099F480919200882359F00E949B0080912B
:10036000BD009091BE0001969093BE008093BD00A9
:100370001092BC001092BB00FF91EF91BF91AF9122
:100380009F918F917F916F915F914F913F912F91AD
:100390000F900FBE0F901F9018958FEF87BB80EFC7
:1003A0008ABB14BA80EE81BB0E9461008CE00E947F
:1003B000490080E487B986E886B98BB780648BBF33
:1003C00085B7836085BF81E083BF89B7816089BFBE
:1003D000789480E00E9419018C010F5F1F4F97E70E
:1003E000892E90E0992E27EAA22E20E0B22E33E843
:1003F000C32E30E0D32E43E9E42E40E0F42E80E01B
:100400000E941901EC019093C0008093BF008017F7
:100410009107A9F38C011695079581E00E94490088
:100420001F930F939F928F92BF92AF920E94ED0302
:10043000B801012E000C880B990B0E94F40226E6ED
:1004400036E646EE5FE30E94800320E030E040E0C5
:1004500052E40E9450020E94BC027F936F93DF928D
:10046000CF92FF92EF920E94ED03C8010E942401F7
:100470008093920087EA90E00E948F0080EC0E94B7
:10048000490083E990E00E948F008DB79EB70C96DB
:100490000FB6F8949EBF0FBE8DBF8E01B0CF5058DF
:1004A000BB27AA270E9467020C9446030E943803C8
:1004B00038F00E943F0320F039F49F3F19F426F4EE
:1004C0000C9435030EF4E095E7FB0C942F03E92F11
:1004D0000E94570358F3BA176207730784079507FA
:1004E00020F079F4A6F50C9479030EF4E0950B2E28
:1004F000BA2FA02D0B01B90190010C01CA01A00176
:100500001124FF27591B99F0593F50F4503E68F1D0
:100510001A16F040A22F232F342F4427585FF3CF11
:10052000469537952795A795F0405395C9F77EF4E2
:100530001F16BA0B620B730B840BBAF09150A1F02B
:10054000FF0FBB1F661F771F881FC2F70EC0BA0FB1
:10055000621F731F841F48F4879577956795B79539
:10056000F7959E3F08F0B0CF9395880F08F0992734
:10057000EE0F9795879508950E94C3026894B11174
:100580000C947A0308950E945F0388F09F5798F0B7
:10059000B92F9927B751B0F0E1F0660F771F881F88
:1005A000991F1AF0BA95C9F714C0B13091F00E94A2
:1005B0007903B1E008950C947903672F782F882789
:1005C000B85F39F0B93FCCF3869577956795B395C9
:1005D000D9F73EF490958095709561957F4F8F4F38
:1005E0009F4F0895E89409C097FB3EF4909580953D
:1005F000709561957F4F8F4F9F4F9923A9F0F92FE9
:1006000096E9BB279395F695879577956795B79566
:10061000F111F8CFFAF4BB0F11F460FF1BC06F5F4C
:100620007F4F8F4F9F4F16C0882311F096E911C05E
:10063000772321F09EE8872F762F05C0662371F07F
:1006400096E8862F70E060E02AF09A95660F771F93
:10065000881FDAF7880F9695879597F9089597F987
:100660009F6780E870E060E008959FEF80EC089558
:1006700000240A9416161706180609060895002481
:100680000A9412161306140605060895092E0394FB
:10069000000C11F4882352F0BB0F40F4BF2B11F46F
:1006A00060FF04C06F5F7F4F8F4F9F4F089557FDCE
:1006B0009058440F551F59F05F3F71F04795880FD0
:1006C00097FB991F61F09F3F79F087950895121667
:1006D00013061406551FF2CF4695F1DF08C0161613
:1006E00017061806991FF1CF8695710561050894C4
:1006F0000895E894BB2766277727CB0197F90895DB
:100700000E9493030C9446030E94380338F00E9421
:100710003F0320F0952311F00C942F030C94350324
:1007200011240C947A030E94570370F3959FC1F330
:10073000950F50E0551F629FF001729FBB27F00D8F
:10074000B11D639FAA27F00DB11DAA1F649F6627E4
:10075000B00DA11D661F829F2227B00DA11D621F33
:10076000739FB00DA11D621F839FA00D611D221FED
:10077000749F3327A00D611D231F849F600D211DD1
:10078000822F762F6A2F11249F5750409AF0F1F054
:1007900088234AF0EE0FFF1FBB1F661F771F881FBD
:1007A00091505040A9F79E3F510580F00C942F03C3
:1007B0000C947A035F3FE4F3983ED4F386957795E3
:1007C0006795B795F795E7959F5FC1F7FE2B880F63
:1007D000911D9695879597F90895AEE0B0E0E3EF07
:1007E000F3E00C94AE060D891E8986E08C831A8393
:1007F00009838FEF9FE79E838D83AE01475E5F4F36
:100800006F89788DCE0101960E940F04EF81F885E3
:10081000E00FF11F10822E96E4E00C94CA06ABE0C4
:10082000B0E0E5E1F4E00C94A0066C017B018A01E4
:10083000FC0117821682838181FFCCC1CE01019613
:100840003C01F6019381F70193FD859193FF81911E
:100850007F01882309F4BAC1853239F493FD85916B
:1008600093FF81917F01853229F4B60190E00E94C7
:100870000606E7CF912C212C312CFFE1F315D8F09F
:100880008B3279F038F4803279F08332A1F4232D61
:1008900020611DC08D3261F0803369F4232D216009
:1008A00016C0832D8260382EE32DE4603E2E2AC0D0
:1008B000F32DF8601DC037FC2DC020ED280F2A3025
:1008C00040F08E32B9F436FC81C1232D2064322EE3
:1008D00019C036FE06C08AE0989E200D1124922E83
:1008E00011C0EAE02E9E200D1124222EF32DF0627D
:1008F0003F2E08C08C3621F4832D8068382E02C02C
:10090000883641F4F70193FD859193FF81917F0132
:100910008111B3CF982F9F7D9554933028F40C5FAD
:100920001F4F9FE399830DC0833631F0833771F0F9
:10093000833509F059C021C0F801808189830E5F99
:100940001F4F88248394912C530113C02801F2E097
:100950004F0E511CF801A080B18036FE03C0692DF6
:1009600070E002C06FEF7FEFC5010E94FB054C01F4
:100970008201F32DFF773F2E16C0280122E0420EA0
:10098000511CF801A080B18036FE03C0692D70E0D3
:1009900002C06FEF7FEFC5010E94F0054C01F32DFF
:1009A000F0683F2E820133FC1BC0822D90E0881638
:1009B0009906B0F4B60180E290E00E9406062A94FF
:1009C000F4CFF50137FC859137FE81915F01B601C7
:1009D00090E00E94060621102A9421E0821A9108D4
:1009E0008114910471F7E8C0843611F0893641F51D
:1009F000F80137FE07C060817181828193810C5FAD
:100A00001F4F08C060817181072E000C880B990B65
:100A10000E5F1F4FF32DFF763F2E97FF09C0909575
:100A20008095709561957F4F8F4F9F4FF0683F2E57
:100A30002AE030E0A3010E944206882E861845C0B5
:100A4000853731F4232D2F7EB22E2AE030E025C0E9
:100A5000932D997FB92E8F36C1F018F4883579F02F
:100A6000B5C0803719F0883721F0B0C0E92FE061B8
:100A7000BE2EB4FE0DC0FB2DF460BF2E09C034FEA7
:100A80000AC0292F2660B22E06C028E030E005C03B
:100A900020E130E002C020E132E0F801B7FE07C0FB
:100AA00060817181828193810C5F1F4F06C06081DC
:100AB000718180E090E00E5F1F4FA3010E9442060B
:100AC000882E8618FB2DFF773F2E36FE0DC0232D76
:100AD0002E7FA22E891458F434FE0BC032FC09C0BC
:100AE000832D8E7EA82E05C0B82CA32C03C0B82C55
:100AF00001C0B92CA4FE0FC0FE01E80DF11D8081DC
:100B0000803321F49A2D997EA92E09C0A2FE06C039
:100B1000B394B39404C08A2D867809F0B394A3FCEF
:100B200011C0A0FE06C0B21488F4280C922C9B18A9
:100B30000EC0B21460F4B60180E290E00E94060696
:100B4000B394F7CFB21418F42B1802C0982C212CB0
:100B5000A4FE10C0B60180E390E00E940606A2FE4B
:100B600017C0A1FC03C088E790E002C088E590E0D0
:100B7000B6010CC08A2D867859F0A1FE02C08BE226
:100B800001C080E2A7FC8DE2B60190E00E9406065B
:100B9000891438F4B60180E390E00E9406069A9426
:100BA000F7CF8A94F301E80DF11D8081B60190E042
:100BB0000E9406068110F5CF222009F442CEB6012C
:100BC00080E290E00E9406062A94F6CFF601868124
:100BD000978102C08FEF9FEF2B96E2E10C94BC0649
:100BE000FC010590615070400110D8F780959095F8
:100BF0008E0F9F1F0895FC016150704001900110FD
:100C0000D8F7809590958E0F9F1F08950F931F938F
:100C1000CF93DF93FB01238121FD03C08FEF9FEF73
:100C20002CC022FF16C0468157812481358142178E
:100C3000530744F4A081B1819D012F5F3F4F318361
:100C400020838C93268137812F5F3F4F3783268304
:100C500014C08B01EC01FB010084F185E02D0995A6
:100C6000892BE1F6D80116968D919C9117970196E4
:100C700017969C938E931697CE01DF91CF911F917B
:100C80000F910895FA01AA27283051F1203181F1FE
:100C9000E8946F936E7F6E5F7F4F8F4F9F4FAF4F84
:100CA000B1E03ED0B4E03CD0670F781F891F9A1F97
:100CB000A11D680F791F8A1F911DA11D6A0F711D4B
:100CC000811D911DA11D20D009F468943F912AE057
:100CD000269F11243019305D3193DEF6CF0108953F
:100CE000462F4770405D4193B3E00FD0C9F7F6CF70
:100CF000462F4F70405D4A3318F0495D31FD405238
:100D0000419302D0A9F7EACFB4E0A69597958795CD
:100D100077956795BA95C9F70097610571050895AC
:100D20009B01AC010A2E0694579547953795279558
:100D3000BA95C9F7620F731F841F951FA01D0895F0
:100D40002F923F924F925F926F927F928F929F92DB
:100D5000AF92BF92CF92DF92EF92FF920F931F93C9
:100D6000CF93DF93CDB7DEB7CA1BDB0B0FB6F8947A
:100D7000DEBF0FBECDBF09942A88398848885F84BA
:100D80006E847D848C849B84AA84B984C884DF802B
:100D9000EE80FD800C811B81AA81B981CE0FD11D0F
:100DA0000FB6F894DEBF0FBECDBFED010895F894E5
:020DB000FFCF73
:100DB2000A00320074656D703A20256400626F7516
:100DC2006E643A2025640063656C636975733A202A
:100DD20025640066616872656E686569743A2025EB
:020DE2006400AB
:00000001FF
