:100000000C9434000C943E000C943E000C943E0082
:100010000C943E000C943E000C943E000C943E0068
:100020000C943E000C943E000C943E000C943E0058
:100030000C943E000C943E000C943E000C943E0048
:100040000C943E000C943E000C943E000C943E0038
:100050000C943E0048004A004C004E0050005200F4
:100060005400560058005A0011241FBECFE5D4E0BA
:10007000DEBFCDBF0E945F000C947A000C9400009C
:100080008A309105D0F4FC01E65DFF4F0C947400BA
:100090008FE311C086E00FC08BE50DC08FE40BC06D
:1000A00086E609C08DE607C08DE705C087E003C07E
:1000B0008FE701C087E685BB089515BA08958FEFD5
:1000C00084BB15BA84E08EBD8FE385BBC0E0D0E071
:1000D0008CB59DB589389341D8F31DBC1CBC2196C5
:1000E000CE010E944000F4CFEE0FFF1F0590F49167
:0800F000E02D0994F894FFCF04
:00000001FF
