:100000000C942A000C9447000C9447000C94470071
:100010000C9447000C9447000C9447000C94470044
:100020000C9447000C9447000C9447000C94470034
:100030000C9447000C9447000C9447000C94470024
:100040000C9447000C9447000C9447000C94470014
:100050000C94470011241FBECFE5D8E0DEBFCDBF12
:1000600011E0A0E6B0E0EAEFF9E002C005900D92E1
:10007000AA35B107D9F721E0AAE5B1E001C01D9288
:10008000A136B207E1F70E94CC010C94FB040C945A
:10009000000088BB95989698979A83EF91E0019716
:1000A000F1F700C000009798089588BB959A96983C
:1000B000979A83EF91E00197F1F700C000009798BD
:1000C000089588E30E94490089EF90E00197F1F7D5
:1000D00000C0000081E00E94490089EF90E0019794
:1000E000F1F700C0000082E00E94490089EF90E033
:1000F0000197F1F700C0000086E00E94490089EFF7
:1001000090E00197F1F700C0000080E80E944900EC
:1001100089EF90E00197F1F700C000000895CF93B8
:10012000DF93EC018991882319F00E945500FACFE2
:10013000DF91CF91089581E00C944900CF93DF9334
:10014000EC010E949B00CE010E948F002FEB87E202
:1001500099E0215080409040E1F700C00000DF911D
:10016000CF910895CF93DF93EB010E944900CE0118
:10017000DF91CF910C948F0088EF84BB089588EFB6
:1001800085BB8DEE92E00197F1F700C0000093B3BC
:10019000977081E009F080E0089588EF85BB8DEECF
:1001A00092E00197F1F700C0000083B3877051F02F
:1001B00087E893E10197F1F700C0000093B39770CF
:1001C00081E009F480E00895CF93DF930E94CD0091
:1001D000813061F5E4EBF0E083E090E0CFECD0E03B
:1001E00021E030E0A901082E01C0440F0A94EAF78B
:1001F00045BBADEEB2E01197F1F700C00000989B4F
:1002000002C0C481D581999B02C0C281D3819A9BCF
:1002100002C0C081D181019636968730910511F7D1
:100220000E94BF008823E1F3CE0102C08FEC90E072
:10023000DF91CF910895EF92FF920F931F93CF9389
:10024000DF930E9449006CEC70E08CE591E00E9425
:100250000A02CCE5D1E080EDE82E80E0F82E0E9485
:10026000E400182F092F6EEC70E00E940102892B28
:10027000B9F0812F902F0E948F000F931F93DF936F
:10028000CF93FF92EF92DF93CF930E9411028DB72D
:100290009EB708960FB6F8949EBF0FBE8DBFDFCFF6
:1002A0008CE591E0DF91CF911F910F91FF90EF903E
:1002B0000895AF92BF92CF92DF92EF92FF920F9389
:1002C0001F93CF93DF930E949B0085ED90E00E94E7
:1002D0008F0080EC90E00E941B017C0164EE70E0D6
:1002E00084E990E00E94B20084ED90E00E941B013E
:1002F0006C01C2E6D0E000E010E08091B200909185
:10030000B30008171907B4F50E949B00CE010E94A4
:100310008F00B70180EC90E00E94B2005E0124E102
:10032000A20EB11CB50184E990E00E94B200B601B2
:1003300084ED90E00E94B2008FEB97E229E08150BB
:1003400090402040E1F700C00000B701CE010E94BC
:100350000102892B59F4B601C5010E940102892BC3
:1003600029F482E08BBB89EF90E008C00F5F1F4F3C
:10037000A896C3CF81E08BBB81E191E00E949E00F3
:100380001BBADF91CF911F910F91FF90EF90DF90FB
:10039000CF90BF90AF9008959FEF97BB80EE81BB49
:1003A00088EF84BB9ABB84BB0E94610083EC99E018
:1003B0000197F1F700C000008EE00E94490083EC35
:1003C00099E00197F1F700C0000082E291E00E94FD
:1003D0008F0065E371E080EC90E00E94B2009FEB3B
:1003E00027E289E0915020408040E1F700C0000002
:1003F00080915A0190915B010097F1F70E94590199
:10040000F7CFFB01DC018D91019080190110D9F328
:10041000990B0895FB01DC0101900D920020E1F79A
:100420000895AEE0B0E0E7E1F2E00C94D2040D896B
:100430001E8986E08C831A8309838FEF9FE79E8352
:100440008D83AE01475E5F4F6F89788DCE01019637
:100450000E943302EF81F885E00FF11F10822E9683
:10046000E4E00C94EE04ABE0B0E0E9E3F2E00C94DD
:10047000C4046C017B018A01FC011782168283810E
:1004800081FFCCC1CE0101963C01F6019381F701B9
:1004900093FD859193FF81917F01882309F4BAC16F
:1004A000853239F493FD859193FF81917F018532E7
:1004B00029F4B60190E00E942A04E7CF912C212C68
:1004C000312CFFE1F315D8F08B3279F038F480321B
:1004D00079F08332A1F4232D20611DC08D3261F0AB
:1004E000803369F4232D216016C0832D8260382E5D
:1004F000E32DE4603E2E2AC0F32DF8601DC037FCCA
:100500002DC020ED280F2A3040F08E32B9F436FC91
:1005100081C1232D2064322E19C036FE06C08AE028
:10052000989E200D1124922E11C0EAE02E9E200DDF
:100530001124222EF32DF0623F2E08C08C3621F4B8
:10054000832D8068382E02C0883641F4F70193FD70
:10055000859193FF81917F018111B3CF982F9F7D6A
:100560009554933028F40C5F1F4F9FE399830DC07F
:10057000833631F0833771F0833509F059C021C0DB
:10058000F801808189830E5F1F4F88248394912C0A
:10059000530113C02801F2E04F0E511CF801A08056
:1005A000B18036FE03C0692D70E002C06FEF7FEFAF
:1005B000C5010E941F044C018201F32DFF773F2EDD
:1005C00016C0280122E0420E511CF801A080B18023
:1005D00036FE03C0692D70E002C06FEF7FEFC501EA
:1005E0000E9414044C01F32DF0683F2E820133FC6D
:1005F0001BC0822D90E088169906B0F4B60180E207
:1006000090E00E942A042A94F4CFF50137FC8591EA
:1006100037FE81915F01B60190E00E942A0421100B
:100620002A9421E0821A91088114910471F7E8C09C
:10063000843611F0893641F5F80137FE07C0608134
:100640007181828193810C5F1F4F08C0608171812D
:10065000072E000C880B990B0E5F1F4FF32DFF76B2
:100660003F2E97FF09C090958095709561957F4FBB
:100670008F4F9F4FF0683F2E2AE030E0A3010E9489
:100680006604882E861845C0853731F4232D2F7EC9
:10069000B22E2AE030E025C0932D997FB92E8F36F7
:1006A000C1F018F4883579F0B5C0803719F0883773
:1006B00021F0B0C0E92FE061BE2EB4FE0DC0FB2DCD
:1006C000F460BF2E09C034FE0AC0292F2660B22E66
:1006D00006C028E030E005C020E130E002C020E1A3
:1006E00032E0F801B7FE07C0608171818281938199
:1006F0000C5F1F4F06C06081718180E090E00E5F4B
:100700001F4FA3010E946604882E8618FB2DFF77D9
:100710003F2E36FE0DC0232D2E7FA22E891458F4B5
:1007200034FE0BC032FC09C0832D8E7EA82E05C07E
:10073000B82CA32C03C0B82C01C0B92CA4FE0FC048
:10074000FE01E80DF11D8081803321F49A2D997E00
:10075000A92E09C0A2FE06C0B394B39404C08A2D8A
:10076000867809F0B394A3FC11C0A0FE06C0B214B1
:1007700088F4280C922C9B180EC0B21460F4B601B9
:1007800080E290E00E942A04B394F7CFB21418F4E8
:100790002B1802C0982C212CA4FE10C0B60180E3B7
:1007A00090E00E942A04A2FE17C0A1FC03C088E7C3
:1007B00090E002C088E590E0B6010CC08A2D8678F2
:1007C00059F0A1FE02C08BE201C080E2A7FC8DE2DD
:1007D000B60190E00E942A04891438F4B60180E33F
:1007E00090E00E942A049A94F7CF8A94F301E80DCE
:1007F000F11D8081B60190E00E942A048110F5CF9E
:10080000222009F442CEB60180E290E00E942A0440
:100810002A94F6CFF6018681978102C08FEF9FEF71
:100820002B96E2E10C94E004FC01059061507040CD
:100830000110D8F7809590958E0F9F1F0895FC01A9
:100840006150704001900110D8F7809590958E0FFF
:100850009F1F08950F931F93CF93DF93FB01238175
:1008600021FD03C08FEF9FEF2CC022FF16C04681F1
:100870005781248135814217530744F4A081B18107
:100880009D012F5F3F4F318320838C9326813781D9
:100890002F5F3F4F3783268314C08B01EC01FB0190
:1008A0000084F185E02D0995892BE1F6D801169693
:1008B0008D919C911797019617969C938E931697FE
:1008C000CE01DF91CF911F910F910895FA01AA27D0
:1008D000283051F1203181F1E8946F936E7F6E5F83
:1008E0007F4F8F4F9F4FAF4FB1E03ED0B4E03CD031
:1008F000670F781F891F9A1FA11D680F791F8A1F14
:10090000911DA11D6A0F711D811D911DA11D20D07A
:1009100009F468943F912AE0269F11243019305D34
:100920003193DEF6CF010895462F4770405D419325
:10093000B3E00FD0C9F7F6CF462F4F70405D4A3372
:1009400018F0495D31FD4052419302D0A9F7EACF3A
:10095000B4E0A6959795879577956795BA95C9F769
:1009600000976105710508959B01AC010A2E06945C
:100970005795479537952795BA95C9F7620F731F15
:10098000841F951FA01D08952F923F924F925F9252
:100990006F927F928F929F92AF92BF92CF92DF928F
:1009A000EF92FF920F931F93CF93DF93CDB7DEB7F4
:1009B000CA1BDB0B0FB6F894DEBF0FBECDBF099488
:1009C0002A88398848885F846E847D848C849B84DF
:1009D000AA84B984C884DF80EE80FD800C811B81ED
:1009E000AA81B981CE0FD11D0FB6F894DEBF0FBE1C
:0A09F000CDBFED010895F894FFCF8C
:1009FA00FFFF3100000000000000000000000000BE
:100A0A0000000000000031000000000000000000AB
:100A1A0000000000000000000000000000000000CC
:100A2A0000000000000000000000000000000000BC
:100A3A0000000000000000000000000000000000AC
:100A4A000000010043014501470149014B014D01E5
:100A5A004F015101530155015701CE0000002300F7
:100A6A002573257300456E74657220796F7572203F
:100A7A0069643A00456E74657220796F75722070E8
:100A8A00617373776F72643A00656E746572656438
:100A9A00207375636365737366756C6C792E2E2E7D
:100AAA00004163636573732064656E6965642E2E05
:100ABA002E0048692E757365202320746F20737584
:100ACA00626D697400757365202A20746F206261F3
:100ADA00636B0031003200330034003500360037D2
:0A0AEA0000380039002A0030000037
:00000001FF
