:100000000C942A000C9447000C9447000C94470071
:100010000C9447000C9447000C9447000C94470044
:100020000C9447000C9447000C9447000C94470034
:100030000C9447000C9447000C9447000C94470024
:100040000C9447000C9447000C9447000C94470014
:100050000C94470011241FBECFE5D8E0DEBFCDBF12
:1000600011E0A0E6B0E0E8E0FBE002C005900D92F0
:10007000A03EB107D9F721E0A0EEB1E001C01D928A
:10008000A63FB207E1F70E944D020C9482050C9442
:10009000000088BB95989698979A83EF91E0019716
:1000A000F1F700C000009798089588BB959A96983C
:1000B000979A83EF91E00197F1F700C000009798BD
:1000C000089588E30E94490089EF90E00197F1F7D5
:1000D00000C0000081E00E94490089EF90E0019794
:1000E000F1F700C0000082E00E94490089EF90E033
:1000F0000197F1F700C0000086E00E94490089EFF7
:1001000090E00197F1F700C0000080E80E944900EC
:1001100089EF90E00197F1F700C000000895CF93B8
:10012000DF93EC018991882319F00E945500FACFE2
:10013000DF91CF91089581E00C944900CF93DF9334
:10014000EC010E949B00CE010E948F002FEB87E202
:1001500099E0215080409040E1F700C00000DF911D
:10016000CF910895CF93DF93EB010E944900CE0118
:10017000DF91CF910C948F0088EF84BB089588EFB6
:1001800085BB8DEE92E00197F1F700C0000093B3BC
:10019000977081E009F080E0089588EF85BB8DEECF
:1001A00092E00197F1F700C0000083B3877051F02F
:1001B00087E893E10197F1F700C0000093B39770CF
:1001C00081E009F480E00895CF93DF930E94CD0091
:1001D000813061F5E4EBF0E083E090E0CFECD0E03B
:1001E00021E030E0A901082E01C0440F0A94EAF78B
:1001F00045BBADEEB2E01197F1F700C00000989B4F
:1002000002C0C481D581999B02C0C281D3819A9BCF
:1002100002C0C081D181019636968730910511F7D1
:100220000E94BF008823E1F3CE0102C08FEC90E072
:10023000DF91CF910895EF92FF920F931F93CF9389
:10024000DF930E9449006CEC70E082EE91E00E9426
:100250009102C2EED1E080EDE82E80E0F82E0E94FF
:10026000E400182F092F6EEC70E00E948802892BA1
:10027000B9F0812F902F0E948F000F931F93DF936F
:10028000CF93FF92EF92DF93CF930E9498028DB7A6
:100290009EB708960FB6F8949EBF0FBE8DBFDFCFF6
:1002A00082EE91E0DF91CF911F910F91FF90EF903F
:1002B0000895AF92BF92CF92DF92EF92FF920F9389
:1002C0001F93CF93DF930E949B0085ED90E00E94E7
:1002D0008F0080EC90E00E941B017C0164EE70E0D6
:1002E00084E990E00E94B20084ED90E00E941B013E
:1002F0006C01A090B200B090B300C2E6D0E000E084
:1003000010E00A151B054CF5B701CE010E948802CA
:10031000892BF9F4B601CE0144960E948802892BFC
:10032000C1F482E08BBB012B39F481E090E0909323
:1003300061008093600004C0109261001092600020
:1003400081E090E09093E1018093E00189EF90E0FB
:1003500008C00F5F1F4FA896D4CF81E08BBB81E10F
:1003600091E00E949E001BBADF91CF911F910F91E7
:10037000FF90EF90DF90CF90BF90AF9008950F93D4
:100380001F93CF93DF9300E010E00E949B000115C4
:10039000110599F482E291E00E948F0064E371E01C
:1003A00080EC90E00E94B20068E471E084E990E0A3
:1003B0000E94B20067E571E012C08BE691E00E94F6
:1003C0008F006EE771E080EC90E00E94B2006CE874
:1003D00071E084E990E00E94B20065E971E084ED8B
:1003E00090E00E94B2000E94E400EC016EEC70E02C
:1003F0000E948802892B09F44DC068EA71E0CE01A1
:100400000E948802892B09F4BECF6AEA71E0CE010E
:1004100001151105D9F40E948802892B19F483E093
:1004200090E02FC06CEA71E0CE010E948802892B17
:1004300019F484E090E025C06EEA71E0CE010E94DC
:100440008802892B81F682E090E01BC00E9488021E
:10045000892B19F485E090E014C06CEA71E0CE01BC
:100460000E948802892B19F486E090E00AC06EEAA7
:1004700071E0CE010E948802892B09F0B4CF87E099
:1004800090E09093E1018093E001DF91CF911F9183
:100490000F91089501E010E078CF9FEF97BB80EEB9
:1004A00081BB88EF84BB9ABB84BB0E94610083EC54
:1004B00099E00197F1F700C000008EE00E9449002A
:1004C00083EC99E00197F1F700C0000080EB91E028
:1004D0000E948F0063EC71E080EC90E00E94B2001B
:1004E0009FEB27E289E0915020408040E1F700C077
:1004F00000008091E0019091E101009731F081309E
:100500009105D9F70E94BF01F4CF0E945901F1CFA4
:10051000FB01DC018D91019080190110D9F3990B39
:100520000895FB01DC0101900D920020E1F7089590
:10053000AEE0B0E0EEE9F2E00C9459050D891E89B9
:1005400086E08C831A8309838FEF9FE79E838D83D8
:10055000AE01475E5F4F6F89788DCE0101960E9494
:10056000BA02EF81F885E00FF11F10822E96E4E0C9
:100570000C947505ABE0B0E0E0ECF2E00C944B05B8
:100580006C017B018A01FC0117821682838181FF45
:10059000CCC1CE0101963C01F6019381F70193FD98
:1005A000859193FF81917F01882309F4BAC1853237
:1005B00039F493FD859193FF81917F01853229F470
:1005C000B60190E00E94B104E7CF912C212C312C90
:1005D000FFE1F315D8F08B3279F038F4803279F0FE
:1005E0008332A1F4232D20611DC08D3261F0803350
:1005F00069F4232D216016C0832D8260382EE32DEF
:10060000E4603E2E2AC0F32DF8601DC037FC2DC0DB
:1006100020ED280F2A3040F08E32B9F436FC81C12B
:10062000232D2064322E19C036FE06C08AE0989E23
:10063000200D1124922E11C0EAE02E9E200D1124CF
:10064000222EF32DF0623F2E08C08C3621F4832D2C
:100650008068382E02C0883641F4F70193FD8591F9
:1006600093FF81917F018111B3CF982F9F7D955486
:10067000933028F40C5F1F4F9FE399830DC083369E
:1006800031F0833771F0833509F059C021C0F8018A
:10069000808189830E5F1F4F88248394912C53019E
:1006A00013C02801F2E04F0E511CF801A080B18068
:1006B00036FE03C0692D70E002C06FEF7FEFC50109
:1006C0000E94A6044C018201F32DFF773F2E16C035
:1006D000280122E0420E511CF801A080B18036FEB4
:1006E00003C0692D70E002C06FEF7FEFC5010E946B
:1006F0009B044C01F32DF0683F2E820133FC1BC09C
:10070000822D90E088169906B0F4B60180E290E060
:100710000E94B1042A94F4CFF50137FC859137FE8D
:1007200081915F01B60190E00E94B10421102A94EA
:1007300021E0821A91088114910471F7E8C084368F
:1007400011F0893641F5F80137FE07C060817181EB
:10075000828193810C5F1F4F08C060817181072ED9
:10076000000C880B990B0E5F1F4FF32DFF763F2E69
:1007700097FF09C090958095709561957F4F8F4F39
:100780009F4FF0683F2E2AE030E0A3010E94ED0465
:10079000882E861845C0853731F4232D2F7EB22E42
:1007A0002AE030E025C0932D997FB92E8F36C1F015
:1007B00018F4883579F0B5C0803719F0883721F002
:1007C000B0C0E92FE061BE2EB4FE0DC0FB2DF46079
:1007D000BF2E09C034FE0AC0292F2660B22E06C0E3
:1007E00028E030E005C020E130E002C020E132E046
:1007F000F801B7FE07C060817181828193810C5F2F
:100800001F4F06C06081718180E090E00E5F1F4F36
:10081000A3010E94ED04882E8618FB2DFF773F2E42
:1008200036FE0DC0232D2E7FA22E891458F434FEDF
:100830000BC032FC09C0832D8E7EA82E05C0B82CBB
:10084000A32C03C0B82C01C0B92CA4FE0FC0FE011C
:10085000E80DF11D8081803321F49A2D997EA92E17
:1008600009C0A2FE06C0B394B39404C08A2D867852
:1008700009F0B394A3FC11C0A0FE06C0B21488F422
:10088000280C922C9B180EC0B21460F4B60180E2C2
:1008900090E00E94B104B394F7CFB21418F42B186F
:1008A00002C0982C212CA4FE10C0B60180E390E079
:1008B0000E94B104A2FE17C0A1FC03C088E790E02B
:1008C00002C088E590E0B6010CC08A2D867859F008
:1008D000A1FE02C08BE201C080E2A7FC8DE2B6015E
:1008E00090E00E94B104891438F4B60180E390E0EE
:1008F0000E94B1049A94F7CF8A94F301E80DF11D98
:100900008081B60190E00E94B1048110F5CF2220D1
:1009100009F442CEB60180E290E00E94B1042A942C
:10092000F6CFF6018681978102C08FEF9FEF2B965D
:10093000E2E10C946705FC010590615070400110E4
:10094000D8F7809590958E0F9F1F0895FC016150F8
:10095000704001900110D8F7809590958E0F9F1FE1
:1009600008950F931F93CF93DF93FB01238121FD04
:1009700003C08FEF9FEF2CC022FF16C04681578126
:10098000248135814217530744F4A081B1819D0130
:100990002F5F3F4F318320838C93268137812F5FD8
:1009A0003F4F3783268314C08B01EC01FB01008489
:1009B000F185E02D0995892BE1F6D80116968D91E8
:1009C0009C911797019617969C938E931697CE013C
:1009D000DF91CF911F910F910895FA01AA27283036
:1009E00051F1203181F1E8946F936E7F6E5F7F4FFC
:1009F0008F4F9F4FAF4FB1E03ED0B4E03CD0670F78
:100A0000781F891F9A1FA11D680F791F8A1F911DCA
:100A1000A11D6A0F711D811D911DA11D20D009F41A
:100A200068943F912AE0269F11243019305D31935C
:100A3000DEF6CF010895462F4770405D4193B3E045
:100A40000FD0C9F7F6CF462F4F70405D4A3318F0EC
:100A5000495D31FD4052419302D0A9F7EACFB4E09D
:100A6000A6959795879577956795BA95C9F7009755
:100A70006105710508959B01AC010A2E06945795F6
:100A8000479537952795BA95C9F7620F731F841F4D
:100A9000951FA01D08952F923F924F925F926F92E3
:100AA0007F928F929F92AF92BF92CF92DF92EF92FE
:100AB000FF920F931F93CF93DF93CDB7DEB7CA1B7F
:100AC000DB0B0FB6F894DEBF0FBECDBF09942A88AA
:100AD000398848885F846E847D848C849B84AA8452
:100AE000B984C884DF80EE80FD800C811B81AA81DF
:100AF000B981CE0FD11D0FB6F894DEBF0FBECDBFAA
:080B0000ED010895F894FFCF08
:100B0800FFFF3100000000000000000000000000AE
:100B1800000000000000310000000000000000009C
:100B280000000000000000000000000000000000BD
:100B380000000000000000000000000000000000AD
:100B4800000000000000000000000000000000009D
:100B580000000100AA01AC01AE01D101D301D50109
:100B6800D701D901DB01A801DD01CE000000230077
:100B78002573257300456E74657220796F75722030
:100B880069643A00456E74657220796F75722070D9
:100B9800617373776F72643A007375636365737317
:100BA80066756C6C79206C6F67696E65642E2E2E85
:100BB800004163636573732064656E6965642E2EF6
:100BC8002E00312E73656520696E666F726D6174D3
:100BD800696F6E00322E646174652674696D6520D4
:100BE80073657474696E6700332E726F746174650F
:100BF800206D6F746F7200757365202320666F72A5
:100C0800206E657874207061676500312E416464D8
:100C1800206F722045646974207573657200322EE6
:100C280072656D6F7665207573657200332E6C6F13
:100C3800676F757400757365202A20666F7220705F
:100C480072652070616765002A0031003200330048
:100C580048692E757365202320746F207375626D43
:100C6800697400757365202A20746F206261636B54
:100C780000340035003600370038003900300000F5
:00000001FF
