:100000000C942A000C9447000C9447000C94470071
:100010000C9447000C9447000C9447000C94470044
:100020000C9447000C9447000C9447000C94470034
:100030000C9447000C9447000C9447000C94470024
:100040000C9447000C9447000C9447000C94470014
:100050000C94470011241FBECFE5D8E0DEBFCDBF12
:1000600012E0A0E6B0E0EAEBFDE002C005900D92E0
:10007000A037B107D9F722E0A0E7B2E001C01D9296
:10008000A638B207E1F70E94A6030C94DB060C9495
:10009000000088BB95989698979A83EF91E0019716
:1000A000F1F700C000009798089588BB959A96983C
:1000B000979A83EF91E00197F1F700C000009798BD
:1000C000089588E30E94490089EF90E00197F1F7D5
:1000D00000C0000081E00E94490089EF90E0019794
:1000E000F1F700C0000082E00E94490089EF90E033
:1000F0000197F1F700C0000086E00E94490089EFF7
:1001000090E00197F1F700C0000080E80E944900EC
:1001100089EF90E00197F1F700C000000895CF93B8
:10012000DF93EC018991882319F00E945500FACFE2
:10013000DF91CF91089581E00C944900CF93DF9334
:10014000EC010E949B00CE010E948F002FEB87E202
:1001500099E0215080409040E1F700C00000DF911D
:10016000CF910895CF93DF93EB010E944900CE0118
:10017000DF91CF910C948F0088EF84BB089588EFB6
:1001800085BB8DEE92E00197F1F700C0000093B3BC
:10019000977081E009F080E0089588EF85BB8DEECF
:1001A00092E00197F1F700C0000083B3877051F02F
:1001B00087E893E10197F1F700C0000093B39770CF
:1001C00081E009F480E00895CF93DF930E94CD0091
:1001D000813061F5E4EBF0E083E090E0CFECD0E03B
:1001E00021E030E0A901082E01C0440F0A94EAF78B
:1001F00045BBADEEB2E01197F1F700C00000989B4F
:1002000002C0C481D581999B02C0C281D3819A9BCF
:1002100002C0C081D181019636968730910511F7D1
:100220000E94BF008823E1F3CE0102C08FEC90E072
:10023000DF91CF910895EF92FF920F931F93CF9389
:10024000DF930E9449006CEC70E082E792E00E942C
:10025000EA03C2E7D2E080EDE82E80E0F82E0E94AB
:10026000E400182F092F6EEC70E00E94E103892B47
:10027000B9F0812F902F0E948F000F931F93DF936F
:10028000CF93FF92EF92DF93CF930E94F1038DB74C
:100290009EB708960FB6F8949EBF0FBE8DBFDFCFF6
:1002A00082E792E0DF91CF911F910F91FF90EF9045
:1002B0000895CF92DF92EF92FF920F931F93CF9307
:1002C000DF93CDB7DEB7A8970FB6F894DEBF0FBEA9
:1002D000CDBF1E8A1D8A82E1FE017796DF01982F2D
:1002E0001D929A95E9F71A8219827497DF011D927F
:1002F0008A95E9F70E949B0085ED90E00E948F00AF
:1003000080EC90E00E941B01BC01CE0145960E944A
:10031000EA0364EE70E084E990E00E94B20084EDAC
:1003200090E00E941B01BC01CE0101960E94EA03ED
:10033000C090B200D090B30002E610E0E12CF12CA6
:10034000EC14FD047CF5BE016B5E7F4FC8010E947A
:10035000E103892B09F5BE016F5F7F4FC801449609
:100360000E94E103892BC1F482E08BBBEF2839F4B2
:1003700081E090E0909361008093600004C010924F
:1003800061001092600081E090E090937102809390
:10039000700289EF90E00AC0BFEFEB1AFB0A085D1C
:1003A0001F4FCECF81E08BBB81E191E00E949E0088
:1003B0001BBAA8960FB6F894DEBF0FBECDBFDF9173
:1003C000CF911F910F91FF90EF90DF90CF90089504
:1003D00082E291E00E949E008FEF9FEF9093610078
:1003E0008093600010927102109270020895EF9253
:1003F000FF920F931F93CF93DF937B01C091B200C5
:10040000D091B300C230D10581F4BC018AE890E0FC
:100410000E94EA03B7018EE990E0DF91CF911F912E
:100420000F91FF90EF900C94EA0328E22C9F80013B
:100430002D9F100D1124BC01C8018E599F4F0E94A1
:10044000EA03B701C8018A589F4F0E94EA03219628
:10045000D093B300C093B200DF91CF911F910F9161
:10046000FF90EF900895CF92DF92EF92FF920F935B
:100470001F93CF93DF93CDB7DEB7A8970FB6F8944D
:10048000DEBF0FBECDBF1E8A1D8A82E1FE017796B8
:10049000DF01282F1D922A95E9F71A821982749795
:1004A000DF011D928A95E9F70E949B0081E391E0AC
:1004B0000E948F0080EC90E00E941B01BC01CE01E5
:1004C00045960E94EA0360E471E084E990E00E94AE
:1004D000B20084ED90E00E941B01BC01CE010196A8
:1004E0000E94EA030E949B00C090B200D090B3002B
:1004F00082E6E82E80E0F82E00E010E00C151D05E5
:10050000F4F4BE016B5E7F4FC7010E94E103B8E2C5
:10051000EB0EF11C892B81F428E2209FC001219F62
:10052000900D1124BE016F5F7F4F8A589F4F0E942C
:10053000EA0385E591E02BC00F5F1F4FDFCF22E07C
:10054000C216D104D9F40E949B0086E691E00E9475
:100550008F0066E771E080EC90E00E94B20064E8F2
:1005600071E084E990E00E94B2000E94E4008C01F6
:1005700061E971E00E94E103892BD1F4BE016F5F54
:100580007F4FCE0145960E94F70183E991E00E94DA
:100590009E00A8960FB6F894DEBF0FBECDBFDF91C8
:1005A000CF911F910F91FF90EF90DF90CF90089522
:1005B00062EA71E0C8010E94E103892BB1F684EA86
:1005C00091E0E5CF0F931F93CF93DF9300E010E00E
:1005D0000E949B00809160009091610081309105A4
:1005E00059F50115110599F486EB91E00E948F00F1
:1005F00068EC71E080EC90E00E94B20067ED71E081
:1006000084E990E00E94B2006BEE71E012C08FEFBF
:1006100091E00E948F0062E172E080EC90E00E9425
:10062000B20060E272E084E990E00E94B20069E208
:1006300072E084ED90E010C0892B81F486EB91E0AC
:100640000E948F0068EC71E080EC90E00E94B200A4
:1006500060E272E084E990E00E94B2000E94E4004F
:10066000EC018091600090916100009709F561E9CB
:1006700071E0CE010E94E103892B19F483E090E040
:1006800059C06CE372E0CE010E94E103892B19F49A
:1006900084E090E04FC06EE372E0CE010E94E1037F
:1006A000892BE1F6DF91CF911F910F910C94E80116
:1006B0000197A1F66EEC70E0CE010E94E103892B58
:1006C00009F441C060E472E0CE010E94E103892B8D
:1006D00009F47CCF61E971E0CE0101151105B1F497
:1006E0000E94E103892B51F26CE372E0CE010E947B
:1006F000E103892B69F26EE372E0CE010E94E1030F
:10070000892B09F0ABCF82E090E014C00E94E10396
:10071000892B31F4DF91CF911F910F910C9433020B
:100720006CE372E0CE010E94E103892B09F0B3CFA4
:1007300086E090E09093710280937002DF91CF91F8
:100740001F910F91089501E010E042CF9FEF97BBFA
:1007500080EE81BB88EF84BB9ABB84BB0E946100A2
:1007600083EC99E00197F1F700C000008EE00E9451
:10077000490083EC99E00197F1F700C0000082E4A2
:1007800092E00E948F0065E572E080EC90E00E94AC
:10079000B2009FEB27E289E0915020408040E1F7D2
:1007A00000C000008091700290917102009731F0BA
:1007B00081309105D9F70E94E202F4CF0E945901DD
:1007C000F1CFFB01DC018D91019080190110D9F36B
:1007D000990B0895FB01DC0101900D920020E1F7D7
:1007E0000895AEE0B0E0E7EFF3E00C94B2060D89B7
:1007F0001E8986E08C831A8309838FEF9FE79E838F
:100800008D83AE01475E5F4F6F89788DCE01019673
:100810000E941304EF81F885E00FF11F10822E96DD
:10082000E4E00C94CE06ABE0B0E0E9E1F4E00C9437
:10083000A4066C017B018A01FC0117821682838168
:1008400081FFCCC1CE0101963C01F6019381F701F5
:1008500093FD859193FF81917F01882309F4BAC1AB
:10086000853239F493FD859193FF81917F01853223
:1008700029F4B60190E00E940A06E7CF912C212CC2
:10088000312CFFE1F315D8F08B3279F038F4803257
:1008900079F08332A1F4232D20611DC08D3261F0E7
:1008A000803369F4232D216016C0832D8260382E99
:1008B000E32DE4603E2E2AC0F32DF8601DC037FC06
:1008C0002DC020ED280F2A3040F08E32B9F436FCCE
:1008D00081C1232D2064322E19C036FE06C08AE065
:1008E000989E200D1124922E11C0EAE02E9E200D1C
:1008F0001124222EF32DF0623F2E08C08C3621F4F5
:10090000832D8068382E02C0883641F4F70193FDAC
:10091000859193FF81917F018111B3CF982F9F7DA6
:100920009554933028F40C5F1F4F9FE399830DC0BB
:10093000833631F0833771F0833509F059C021C017
:10094000F801808189830E5F1F4F88248394912C46
:10095000530113C02801F2E04F0E511CF801A08092
:10096000B18036FE03C0692D70E002C06FEF7FEFEB
:10097000C5010E94FF054C018201F32DFF773F2E38
:1009800016C0280122E0420E511CF801A080B1805F
:1009900036FE03C0692D70E002C06FEF7FEFC50126
:1009A0000E94F4054C01F32DF0683F2E820133FCC8
:1009B0001BC0822D90E088169906B0F4B60180E243
:1009C00090E00E940A062A94F4CFF50137FC859145
:1009D00037FE81915F01B60190E00E940A06211066
:1009E0002A9421E0821A91088114910471F7E8C0D9
:1009F000843611F0893641F5F80137FE07C0608171
:100A00007181828193810C5F1F4F08C06081718169
:100A1000072E000C880B990B0E5F1F4FF32DFF76EE
:100A20003F2E97FF09C090958095709561957F4FF7
:100A30008F4F9F4FF0683F2E2AE030E0A3010E94C5
:100A40004606882E861845C0853731F4232D2F7E23
:100A5000B22E2AE030E025C0932D997FB92E8F3633
:100A6000C1F018F4883579F0B5C0803719F08837AF
:100A700021F0B0C0E92FE061BE2EB4FE0DC0FB2D09
:100A8000F460BF2E09C034FE0AC0292F2660B22EA2
:100A900006C028E030E005C020E130E002C020E1DF
:100AA00032E0F801B7FE07C06081718182819381D5
:100AB0000C5F1F4F06C06081718180E090E00E5F87
:100AC0001F4FA3010E944606882E8618FB2DFF7734
:100AD0003F2E36FE0DC0232D2E7FA22E891458F4F2
:100AE00034FE0BC032FC09C0832D8E7EA82E05C0BB
:100AF000B82CA32C03C0B82C01C0B92CA4FE0FC085
:100B0000FE01E80DF11D8081803321F49A2D997E3C
:100B1000A92E09C0A2FE06C0B394B39404C08A2DC6
:100B2000867809F0B394A3FC11C0A0FE06C0B214ED
:100B300088F4280C922C9B180EC0B21460F4B601F5
:100B400080E290E00E940A06B394F7CFB21418F442
:100B50002B1802C0982C212CA4FE10C0B60180E3F3
:100B600090E00E940A06A2FE17C0A1FC03C088E71D
:100B700090E002C088E590E0B6010CC08A2D86782E
:100B800059F0A1FE02C08BE201C080E2A7FC8DE219
:100B9000B60190E00E940A06891438F4B60180E399
:100BA00090E00E940A069A94F7CF8A94F301E80D28
:100BB000F11D8081B60190E00E940A068110F5CFF8
:100BC000222009F442CEB60180E290E00E940A069B
:100BD0002A94F6CFF6018681978102C08FEF9FEFAE
:100BE0002B96E2E10C94C006FC0105906150704028
:100BF0000110D8F7809590958E0F9F1F0895FC01E6
:100C00006150704001900110D8F7809590958E0F3B
:100C10009F1F08950F931F93CF93DF93FB012381B1
:100C200021FD03C08FEF9FEF2CC022FF16C046812D
:100C30005781248135814217530744F4A081B18143
:100C40009D012F5F3F4F318320838C932681378115
:100C50002F5F3F4F3783268314C08B01EC01FB01CC
:100C60000084F185E02D0995892BE1F6D8011696CF
:100C70008D919C911797019617969C938E9316973A
:100C8000CE01DF91CF911F910F910895FA01AA270C
:100C9000283051F1203181F1E8946F936E7F6E5FBF
:100CA0007F4F8F4F9F4FAF4FB1E03ED0B4E03CD06D
:100CB000670F781F891F9A1FA11D680F791F8A1F50
:100CC000911DA11D6A0F711D811D911DA11D20D0B7
:100CD00009F468943F912AE0269F11243019305D71
:100CE0003193DEF6CF010895462F4770405D419362
:100CF000B3E00FD0C9F7F6CF462F4F70405D4A33AF
:100D000018F0495D31FD4052419302D0A9F7EACF76
:100D1000B4E0A6959795879577956795BA95C9F7A5
:100D200000976105710508959B01AC010A2E069498
:100D30005795479537952795BA95C9F7620F731F51
:100D4000841F951FA01D08952F923F924F925F928E
:100D50006F927F928F929F92AF92BF92CF92DF92CB
:100D6000EF92FF920F931F93CF93DF93CDB7DEB730
:100D7000CA1BDB0B0FB6F894DEBF0FBECDBF0994C4
:100D80002A88398848885F846E847D848C849B841B
:100D9000AA84B984C884DF80EE80FD800C811B8129
:100DA000AA81B981CE0FD11D0FB6F894DEBF0FBE58
:0A0DB000CDBFED010895F894FFCFC8
:100DBA00FFFF3100000000000000000000000000FA
:100DCA0000000000000032000000000000000000E7
:100DDA000000000000000000000000000000000009
:100DEA0000000000000000000000000000000000F9
:100DFA0000000000000000000000000000000000E9
:100E0A000000010091013C023E0263026502670292
:100E1A0069026B026D024002A201CE0000002300AB
:100E2A002573257300456E74657220796F7572207B
:100E3A0069643A00456E74657220796F7572207024
:100E4A00617373776F72643A007375636365737362
:100E5A0066756C6C79206C6F67696E65642E2E2ED0
:100E6A00004163636573732064656E6965642E2E41
:100E7A002E004C6F67676564206F7574202E2E2EC6
:100E8A0000456E74657220757365722069643A0054
:100E9A00456E74657220757365722070617373771D
:100EAA006F72643A00757365722075706461746557
:100EBA0064202E2E2E005468652072616D2069739D
:100ECA002046756C6C006F7665727772697465205E
:100EDA0069743F0028313D7965732F303D6E6F2963
:100EEA0000310075736572206164646564202E2E7A
:100EFA002E0030007573657220646F6E7420616411
:100F0A0064202E2E2E00312E73656520696E666F61
:100F1A00726D6174696F6E00322E726F74617465DE
:100F2A00206D6F746F7200332E6461746526746964
:100F3A006D652073657474696E6700757365202327
:100F4A0020666F72206E6578742070616765003163
:100F5A002E416464206F722045646974207573653C
:100F6A007200322E72656D6F766520757365720038
:100F7A00332E6C6F676F757400757365202A20664F
:100F8A006F722070726520706167650032003300ED
:100F9A002A0048692E757365202320746F207375A3
:100FAA00626D697400757365202A20746F2062610E
:100FBA00636B003400350036003700380039000012
:00000001FF
