:100000000C942A000C94DA000C94FF000C94470026
:100010000C9447000C9447000C9447000C94470044
:100020000C9447000C9409010C9447000C94470071
:100030000C9447000C9447000C9447000C94470024
:100040000C9447000C9447000C9447000C94470014
:100050000C94470011241FBECFE5D8E0DEBFCDBF12
:1000600010E0A0E6B0E0EEEAF8E002C005900D92E4
:10007000A837B107D9F720E0A8E7B0E001C01D928A
:10008000A838B207E1F70E943C010C9455040C9487
:1000900000008EB58B7F8EBD8EB58D7F8EBD8EB5EB
:1000A0008E7F8EBD089588BB95989698979A86EA1C
:1000B0008A95F1F700C09798089588BB959A96980D
:1000C000979A81EE94E00197F1F700C000009798AD
:1000D000089588E30E94530089EF90E00197F1F7BB
:1000E00000C0000081E00E94530089EF90E001977A
:1000F000F1F700C0000082E00E94530089EF90E019
:100100000197F1F700C0000086E00E94530089EFDC
:1001100090E00197F1F700C0000080E80E945300D2
:1001200089EF90E00197F1F700C000000895CF93A8
:10013000DF93EC018991882319F00E945D00FACFCA
:10014000DF91CF91089581E00E945300809161007A
:100150008F93809160008F9382E690E09F938F93BE
:1001600088E790E09F938F930E946B010F900F9010
:100170000F900F900F900F9088E790E00C949700ED
:10018000809160009091610001979093610080934D
:100190006000019641F481E08BBB0E9453008BE626
:1001A00090E00C949700089581110C9449008EB54D
:1001B0008EBD08951F920F920FB60F9211242F93A8
:1001C0003F934F935F936F937F938F939F93AF93DF
:1001D000BF93EF93FF938EB50E944900FF91EF917B
:1001E000BF91AF919F918F917F916F915F914F914F
:1001F0003F912F910F900FBE0F901F9018951F9257
:100200000F920FB60F9211240F900FBE0F901F90F8
:1002100018951F920F920FB60F9211242F933F93B0
:100220004F935F936F937F938F939F93AF93BF93FE
:10023000EF93FF93809186009091870001969093B1
:100240008700809386006FE070E00E945701892B41
:1002500011F40E94A300FF91EF91BF91AF919F9184
:100260008F917F916F915F914F913F912F910F905F
:100270000FBE0F901F90189514BA81E08ABB8FEFC4
:1002800087BB80EE81BB0E9469008CE00E94530016
:100290000E94A30084E089BF8BB7806C8BBF85B7B9
:1002A000836085BF85B78C6085BF7894FFCFAA1B1C
:1002B000BB1B51E107C0AA1FBB1FA617B70710F051
:1002C000A61BB70B881F991F5A95A9F78095909583
:1002D000BC01CD010895AEE0B0E0E1E7F1E00C949F
:1002E0002C040D891E8986E08C831A8309838FEF85
:1002F0009FE79E838D83AE01475E5F4F6F89788D48
:10030000CE0101960E948D01EF81F885E00FF11F6B
:1003100010822E96E4E00C944804ABE0B0E0E3E9F0
:10032000F1E00C941E046C017B018A01FC01178230
:100330001682838181FFCCC1CE0101963C01F6017A
:100340009381F70193FD859193FF81917F0188232C
:1003500009F4BAC1853239F493FD859193FF8191F7
:100360007F01853229F4B60190E00E948403E7CF33
:10037000912C212C312CFFE1F315D8F08B3279F040
:1003800038F4803279F08332A1F4232D20611DC02E
:100390008D3261F0803369F4232D216016C0832DE6
:1003A0008260382EE32DE4603E2E2AC0F32DF860E3
:1003B0001DC037FC2DC020ED280F2A3040F08E32B2
:1003C000B9F436FC81C1232D2064322E19C036FECB
:1003D00006C08AE0989E200D1124922E11C0EAE0FA
:1003E0002E9E200D1124222EF32DF0623F2E08C0E8
:1003F0008C3621F4832D8068382E02C0883641F473
:10040000F70193FD859193FF81917F018111B3CF16
:10041000982F9F7D9554933028F40C5F1F4F9FE3D6
:1004200099830DC0833631F0833771F0833509F03D
:1004300059C021C0F801808189830E5F1F4F882435
:100440008394912C530113C02801F2E04F0E511CEC
:10045000F801A080B18036FE03C0692D70E002C0B3
:100460006FEF7FEFC5010E9479034C018201F32DEC
:10047000FF773F2E16C0280122E0420E511CF801E2
:10048000A080B18036FE03C0692D70E002C06FEF1E
:100490007FEFC5010E946E034C01F32DF0683F2EE3
:1004A000820133FC1BC0822D90E088169906B0F4BF
:1004B000B60180E290E00E9484032A94F4CFF50113
:1004C00037FC859137FE81915F01B60190E00E9473
:1004D000840321102A9421E0821A91088114910446
:1004E00071F7E8C0843611F0893641F5F80137FE1E
:1004F00007C060817181828193810C5F1F4F08C0AA
:1005000060817181072E000C880B990B0E5F1F4FC5
:10051000F32DFF763F2E97FF09C09095809570953B
:1005200061957F4F8F4F9F4FF0683F2E2AE030E05C
:10053000A3010E94C003882E861845C0853731F478
:10054000232D2F7EB22E2AE030E025C0932D997FF7
:10055000B92E8F36C1F018F4883579F0B5C08037E0
:1005600019F0883721F0B0C0E92FE061BE2EB4FE4B
:100570000DC0FB2DF460BF2E09C034FE0AC0292F28
:100580002660B22E06C028E030E005C020E130E051
:1005900002C020E132E0F801B7FE07C0608171813E
:1005A000828193810C5F1F4F06C06081718180E062
:1005B00090E00E5F1F4FA3010E94C003882E861893
:1005C000FB2DFF773F2E36FE0DC0232D2E7FA22E52
:1005D000891458F434FE0BC032FC09C0832D8E7E82
:1005E000A82E05C0B82CA32C03C0B82C01C0B92C70
:1005F000A4FE0FC0FE01E80DF11D8081803321F4BF
:100600009A2D997EA92E09C0A2FE06C0B394B39478
:1006100004C08A2D867809F0B394A3FC11C0A0FE13
:1006200006C0B21488F4280C922C9B180EC0B21489
:1006300060F4B60180E290E00E948403B394F7CFA7
:10064000B21418F42B1802C0982C212CA4FE10C050
:10065000B60180E390E00E948403A2FE17C0A1FCD3
:1006600003C088E790E002C088E590E0B6010CC0C6
:100670008A2D867859F0A1FE02C08BE201C080E28B
:10068000A7FC8DE2B60190E00E948403891438F43F
:10069000B60180E390E00E9484039A94F7CF8A9495
:1006A000F301E80DF11D8081B60190E00E94840302
:1006B0008110F5CF222009F442CEB60180E290E00D
:1006C0000E9484032A94F6CFF6018681978102C0A6
:1006D0008FEF9FEF2B96E2E10C943A04FC0105901A
:1006E000615070400110D8F7809590958E0F9F1F34
:1006F0000895FC016150704001900110D8F7809579
:1007000090958E0F9F1F08950F931F93CF93DF93A4
:10071000FB01238121FD03C08FEF9FEF2CC022FF3F
:1007200016C046815781248135814217530744F40E
:10073000A081B1819D012F5F3F4F318320838C9336
:10074000268137812F5F3F4F3783268314C08B016B
:10075000EC01FB010084F185E02D0995892BE1F680
:10076000D80116968D919C911797019617969C9398
:100770008E931697CE01DF91CF911F910F9108951F
:10078000FA01AA27283051F1203181F1E8946F93C2
:100790006E7F6E5F7F4F8F4F9F4FAF4FB1E03ED068
:1007A000B4E03CD0670F781F891F9A1FA11D680F06
:1007B000791F8A1F911DA11D6A0F711D811D911D39
:1007C000A11D20D009F468943F912AE0269F1124AE
:1007D0003019305D3193DEF6CF010895462F477012
:1007E000405D4193B3E00FD0C9F7F6CF462F4F706D
:1007F000405D4A3318F0495D31FD4052419302D0CB
:10080000A9F7EACFB4E0A695979587957795679570
:10081000BA95C9F700976105710508959B01AC0170
:100820000A2E06945795479537952795BA95C9F797
:10083000620F731F841F951FA01D08952F923F9272
:100840004F925F926F927F928F929F92AF92BF92E0
:10085000CF92DF92EF92FF920F931F93CF93DF938C
:10086000CDB7DEB7CA1BDB0B0FB6F894DEBF0FBEE9
:10087000CDBF09942A88398848885F846E847D8436
:100880008C849B84AA84B984C884DF80EE80FD8038
:100890000C811B81AA81B981CE0FD11D0FB6F894AE
:0E08A000DEBF0FBECDBFED010895F894FFCF6F
:1008AE00FFFF74696D653A202564002E2E2E2E45AD
:0808BE004E442E2E2E2E0000E8
:00000001FF
